{
  "_format": "hh-sol-artifact-1",
  "contractName": "Voting_YourName",
  "sourceName": "contracts/Voting_YourName.sol",
  "abi": [
    {
      "inputs": [
        {
          "internalType": "uint256",
          "name": "_votingDuration",
          "type": "uint256"
        }
      ],
      "stateMutability": "nonpayable",
      "type": "constructor"
    },
    {
      "anonymous": false,
      "inputs": [
        {
          "indexed": true,
          "internalType": "uint256",
          "name": "candidateId",
          "type": "uint256"
        },
        {
          "indexed": false,
          "internalType": "string",
          "name": "name",
          "type": "string"
        }
      ],
      "name": "CandidateAdded",
      "type": "event"
    },
    {
      "anonymous": false,
      "inputs": [
        {
          "indexed": true,
          "internalType": "address",
          "name": "voter",
          "type": "address"
        },
        {
          "indexed": true,
          "internalType": "uint256",
          "name": "candidateId",
          "type": "uint256"
        },
        {
          "indexed": false,
          "internalType": "uint256",
          "name": "timestamp",
          "type": "uint256"
        }
      ],
      "name": "VoteCast",
      "type": "event"
    },
    {
      "anonymous": false,
      "inputs": [
        {
          "indexed": false,
          "internalType": "uint256",
          "name": "timestamp",
          "type": "uint256"
        },
        {
          "indexed": false,
          "internalType": "uint256",
          "name": "winnerId",
          "type": "uint256"
        }
      ],
      "name": "VotingEnded",
      "type": "event"
    },
    {
      "inputs": [
        {
          "internalType": "string",
          "name": "_name",
          "type": "string"
        }
      ],
      "name": "addCandidate",
      "outputs": [],
      "stateMutability": "nonpayable",
      "type": "function"
    },
    {
      "inputs": [],
      "name": "admin",
      "outputs": [
        {
          "internalType": "address",
          "name": "",
          "type": "address"
        }
      ],
      "stateMutability": "view",
      "type": "function"
    },
    {
      "inputs": [
        {
          "internalType": "address",
          "name": "_voter",
          "type": "address"
        }
      ],
      "name": "canVote",
      "outputs": [
        {
          "internalType": "bool",
          "name": "",
          "type": "bool"
        }
      ],
      "stateMutability": "view",
      "type": "function"
    },
    {
      "inputs": [
        {
          "internalType": "uint256",
          "name": "",
          "type": "uint256"
        }
      ],
      "name": "candidates",
      "outputs": [
        {
          "internalType": "uint256",
          "name": "id",
          "type": "uint256"
        },
        {
          "internalType": "string",
          "name": "name",
          "type": "string"
        },
        {
          "internalType": "uint256",
          "name": "voteCount",
          "type": "uint256"
        }
      ],
      "stateMutability": "view",
      "type": "function"
    },
    {
      "inputs": [],
      "name": "candidatesCount",
      "outputs": [
        {
          "internalType": "uint256",
          "name": "",
          "type": "uint256"
        }
      ],
      "stateMutability": "view",
      "type": "function"
    },
    {
      "inputs": [],
      "name": "endVoting",
      "outputs": [],
      "stateMutability": "nonpayable",
      "type": "function"
    },
    {
      "inputs": [],
      "name": "getAllCandidates",
      "outputs": [
        {
          "components": [
            {
              "internalType": "uint256",
              "name": "id",
              "type": "uint256"
            },
            {
              "internalType": "string",
              "name": "name",
              "type": "string"
            },
            {
              "internalType": "uint256",
              "name": "voteCount",
              "type": "uint256"
            }
          ],
          "internalType": "struct Voting_YourName.Candidate[]",
          "name": "",
          "type": "tuple[]"
        }
      ],
      "stateMutability": "view",
      "type": "function"
    },
    {
      "inputs": [
        {
          "internalType": "uint256",
          "name": "_candidateId",
          "type": "uint256"
        }
      ],
      "name": "getCandidate",
      "outputs": [
        {
          "components": [
            {
              "internalType": "uint256",
              "name": "id",
              "type": "uint256"
            },
            {
              "internalType": "string",
              "name": "name",
              "type": "string"
            },
            {
              "internalType": "uint256",
              "name": "voteCount",
              "type": "uint256"
            }
          ],
          "internalType": "struct Voting_YourName.Candidate",
          "name": "",
          "type": "tuple"
        }
      ],
      "stateMutability": "view",
      "type": "function"
    },
    {
      "inputs": [],
      "name": "getRemainingTime",
      "outputs": [
        {
          "internalType": "uint256",
          "name": "",
          "type": "uint256"
        }
      ],
      "stateMutability": "view",
      "type": "function"
    },
    {
      "inputs": [
        {
          "internalType": "uint256",
          "name": "_candidateId",
          "type": "uint256"
        }
      ],
      "name": "getVotesForCandidate",
      "outputs": [
        {
          "internalType": "uint256",
          "name": "",
          "type": "uint256"
        }
      ],
      "stateMutability": "view",
      "type": "function"
    },
    {
      "inputs": [],
      "name": "getVotingStatus",
      "outputs": [
        {
          "internalType": "bool",
          "name": "",
          "type": "bool"
        },
        {
          "internalType": "uint256",
          "name": "",
          "type": "uint256"
        },
        {
          "internalType": "uint256",
          "name": "",
          "type": "uint256"
        }
      ],
      "stateMutability": "view",
      "type": "function"
    },
    {
      "inputs": [],
      "name": "getWinner",
      "outputs": [
        {
          "internalType": "uint256",
          "name": "",
          "type": "uint256"
        }
      ],
      "stateMutability": "view",
      "type": "function"
    },
    {
      "inputs": [],
      "name": "getWinnerName",
      "outputs": [
        {
          "internalType": "string",
          "name": "",
          "type": "string"
        }
      ],
      "stateMutability": "view",
      "type": "function"
    },
    {
      "inputs": [
        {
          "internalType": "address",
          "name": "",
          "type": "address"
        }
      ],
      "name": "hasVoted",
      "outputs": [
        {
          "internalType": "bool",
          "name": "",
          "type": "bool"
        }
      ],
      "stateMutability": "view",
      "type": "function"
    },
    {
      "inputs": [],
      "name": "totalVotes",
      "outputs": [
        {
          "internalType": "uint256",
          "name": "",
          "type": "uint256"
        }
      ],
      "stateMutability": "view",
      "type": "function"
    },
    {
      "inputs": [
        {
          "internalType": "uint256",
          "name": "_candidateId",
          "type": "uint256"
        }
      ],
      "name": "vote",
      "outputs": [],
      "stateMutability": "nonpayable",
      "type": "function"
    },
    {
      "inputs": [
        {
          "internalType": "uint256",
          "name": "",
          "type": "uint256"
        }
      ],
      "name": "votes",
      "outputs": [
        {
          "internalType": "uint256",
          "name": "",
          "type": "uint256"
        }
      ],
      "stateMutability": "view",
      "type": "function"
    },
    {
      "inputs": [],
      "name": "votingEndTime",
      "outputs": [
        {
          "internalType": "uint256",
          "name": "",
          "type": "uint256"
        }
      ],
      "stateMutability": "view",
      "type": "function"
    },
    {
      "inputs": [],
      "name": "votingEnded",
      "outputs": [
        {
          "internalType": "bool",
          "name": "",
          "type": "bool"
        }
      ],
      "stateMutability": "view",
      "type": "function"
    }
  ],
  "bytecode": "0x6080604052348015600f57600080fd5b50604051611202380380611202833981016040819052602c916062565b600080546001600160a01b0319163317905560468142607a565b600155506002805460ff191690556000600381905560055560a0565b600060208284031215607357600080fd5b5051919050565b80820180821115609a57634e487b7160e01b600052601160045260246000fd5b92915050565b611153806100af6000396000f3fe608060405234801561001057600080fd5b50600436106101215760003560e01c8063462e91ec116100ad5780639d5a0529116100715780639d5a05291461027b578063adfaa72e14610288578063c3403ddf1461029b578063efb98bcf146102a3578063f851a440146102ab57600080fd5b8063462e91ec14610208578063530178721461021b578063581c281c1461022e5780635df81330146102535780638e7ea5b21461027357600080fd5b80632bfda515116100f45780632bfda515146101935780632d35a8a2146101a85780632e6997fe146101b15780633477ee2e146101c657806335b8e820146101e857600080fd5b80630121b93f1461012657806309eef43e1461013b5780630d15fd77146101735780631ea736e01461018a575b600080fd5b610139610134366004610ca4565b6102d6565b005b61015e610149366004610cbd565b60066020526000908152604090205460ff1681565b60405190151581526020015b60405180910390f35b61017c60035481565b60405190815260200161016a565b61017c60015481565b61019b610453565b60405161016a9190610d33565b61017c60055481565b6101b961058a565b60405161016a9190610d79565b6101d96101d4366004610ca4565b610713565b60405161016a93929190610dde565b6101fb6101f6366004610ca4565b6107be565b60405161016a9190610e07565b610139610216366004610e30565b6108db565b61017c610229366004610ca4565b610a3d565b610236610a82565b60408051931515845260208401929092529082015260600161016a565b61017c610261366004610ca4565b60076020526000908152604090205481565b61017c610aab565b60025461015e9060ff1681565b61015e610296366004610cbd565b610b5e565b610139610b9d565b61017c610c70565b6000546102be906001600160a01b031681565b6040516001600160a01b03909116815260200161016a565b60015442106103005760405162461bcd60e51b81526004016102f790610ee9565b60405180910390fd5b60025460ff16156103235760405162461bcd60e51b81526004016102f790610ee9565b60008111801561033557506005548111155b6103515760405162461bcd60e51b81526004016102f790610f13565b3360009081526006602052604090205460ff16156103aa5760405162461bcd60e51b8152602060048201526016602482015275165bdd481a185d9948185b1c9958591e481d9bdd195960521b60448201526064016102f7565b336000908152600660209081526040808320805460ff19166001179055838352600490915281206002018054916103e083610f57565b909155505060008181526007602052604081208054916103ff83610f57565b90915550506003805490600061041483610f57565b9091555050604051428152819033907fb4cfecf70861b7b150d8337780d34fb4cbc2114b5fb1fe51a5c5fca1849f72749060200160405180910390a350565b606060015442101580610468575060025460ff165b6104ad5760405162461bcd60e51b8152602060048201526016602482015275566f74696e67206973207374696c6c2061637469766560501b60448201526064016102f7565b60006104b7610aab565b9050806000036104ea57505060408051808201909152600d81526c139bc81d9bdd195cc818d85cdd609a1b602082015290565b6000818152600460205260409020600101805461050690610f70565b80601f016020809104026020016040519081016040528092919081815260200182805461053290610f70565b801561057f5780601f106105545761010080835404028352916020019161057f565b820191906000526020600020905b81548152906001019060200180831161056257829003601f168201915b505050505091505090565b6060600060055467ffffffffffffffff8111156105a9576105a9610e1a565b6040519080825280602002602001820160405280156105fe57816020015b6105eb60405180606001604052806000815260200160608152602001600081525090565b8152602001906001900390816105c75790505b50905060015b600554811161070d57600460008281526020019081526020016000206040518060600160405290816000820154815260200160018201805461064590610f70565b80601f016020809104026020016040519081016040528092919081815260200182805461067190610f70565b80156106be5780601f10610693576101008083540402835291602001916106be565b820191906000526020600020905b8154815290600101906020018083116106a157829003601f168201915b50505050508152602001600282015481525050826001836106df9190610fa4565b815181106106ef576106ef610fb7565b6020026020010181905250808061070590610f57565b915050610604565b50919050565b6004602052600090815260409020805460018201805491929161073590610f70565b80601f016020809104026020016040519081016040528092919081815260200182805461076190610f70565b80156107ae5780601f10610783576101008083540402835291602001916107ae565b820191906000526020600020905b81548152906001019060200180831161079157829003601f168201915b5050505050908060020154905083565b6107e260405180606001604052806000815260200160608152602001600081525090565b6000821180156107f457506005548211155b6108105760405162461bcd60e51b81526004016102f790610f13565b600460008381526020019081526020016000206040518060600160405290816000820154815260200160018201805461084890610f70565b80601f016020809104026020016040519081016040528092919081815260200182805461087490610f70565b80156108c15780601f10610896576101008083540402835291602001916108c1565b820191906000526020600020905b8154815290600101906020018083116108a457829003601f168201915b505050505081526020016002820154815250509050919050565b6000546001600160a01b031633146109055760405162461bcd60e51b81526004016102f790610fcd565b60015442106109265760405162461bcd60e51b81526004016102f790610ee9565b60025460ff16156109495760405162461bcd60e51b81526004016102f790610ee9565b600081511161099a5760405162461bcd60e51b815260206004820152601e60248201527f43616e646964617465206e616d652063616e6e6f7420626520656d707479000060448201526064016102f7565b600580549060006109aa83610f57565b90915550506040805160608101825260055480825260208083018581526000848601819052928352600490915292902081518155915190919060018201906109f2908261105e565b50604082015181600201559050506005547fe83b2a43e7e82d975c8a0a6d2f045153c869e111136a34d1889ab7b598e396a382604051610a329190610d33565b60405180910390a250565b60008082118015610a5057506005548211155b610a6c5760405162461bcd60e51b81526004016102f790610f13565b5060009081526004602052604090206002015490565b6002546000908190819060ff1680610a9c57506001544210155b42600154925092509250909192565b600060015442101580610ac0575060025460ff165b610b055760405162461bcd60e51b8152602060048201526016602482015275566f74696e67206973207374696c6c2061637469766560501b60448201526064016102f7565b60008060015b6005548111610b5757600081815260046020526040902060020154831015610b455760008181526004602052604090206002015492509050805b80610b4f81610f57565b915050610b0b565b5091505090565b6001600160a01b03811660009081526006602052604081205460ff16158015610b8a575060025460ff16155b8015610b97575060015442105b92915050565b6000546001600160a01b03163314610bc75760405162461bcd60e51b81526004016102f790610fcd565b60025460ff1615610c1a5760405162461bcd60e51b815260206004820152601860248201527f566f74696e672068617320616c726561647920656e646564000000000000000060448201526064016102f7565b6002805460ff191660011790556000610c31610aab565b60408051428152602081018390529192507f04e400203b6647e7ab88412380ee2430174c77bd98021012d3647eb3fa63f63f910160405180910390a150565b60025460009060ff1680610c8657506001544210155b15610c915750600090565b42600154610c9f9190610fa4565b905090565b600060208284031215610cb657600080fd5b5035919050565b600060208284031215610ccf57600080fd5b81356001600160a01b0381168114610ce657600080fd5b9392505050565b6000815180845260005b81811015610d1357602081850181015186830182015201610cf7565b506000602082860101526020601f19601f83011685010191505092915050565b602081526000610ce66020830184610ced565b805182526000602082015160606020850152610d656060850182610ced565b604093840151949093019390935250919050565b6000602082016020835280845180835260408501915060408160051b86010192506020860160005b82811015610dd257603f19878603018452610dbd858351610d46565b94506020938401939190910190600101610da1565b50929695505050505050565b838152606060208201526000610df76060830185610ced565b9050826040830152949350505050565b602081526000610ce66020830184610d46565b634e487b7160e01b600052604160045260246000fd5b600060208284031215610e4257600080fd5b813567ffffffffffffffff811115610e5957600080fd5b8201601f81018413610e6a57600080fd5b803567ffffffffffffffff811115610e8457610e84610e1a565b604051601f8201601f19908116603f0116810167ffffffffffffffff81118282101715610eb357610eb3610e1a565b604052818152828201602001861015610ecb57600080fd5b81602084016020830137600091810160200191909152949350505050565b60208082526010908201526f159bdd1a5b99c81a185cc8195b99195960821b604082015260600190565b602080825260149082015273125b9d985b1a590818d85b991a59185d1948125160621b604082015260600190565b634e487b7160e01b600052601160045260246000fd5b600060018201610f6957610f69610f41565b5060010190565b600181811c90821680610f8457607f821691505b60208210810361070d57634e487b7160e01b600052602260045260246000fd5b81810381811115610b9757610b97610f41565b634e487b7160e01b600052603260045260246000fd5b60208082526022908201527f4f6e6c792061646d696e2063616e20706572666f726d2074686973206163746960408201526137b760f11b606082015260800190565b601f82111561105957806000526020600020601f840160051c810160208510156110365750805b601f840160051c820191505b818110156110565760008155600101611042565b50505b505050565b815167ffffffffffffffff81111561107857611078610e1a565b61108c816110868454610f70565b8461100f565b6020601f8211600181146110c057600083156110a85750848201515b600019600385901b1c1916600184901b178455611056565b600084815260208120601f198516915b828110156110f057878501518255602094850194600190920191016110d0565b508482101561110e5786840151600019600387901b60f8161c191681555b50505050600190811b0190555056fea2646970667358221220dea79e1166a425dc1e19364ce4584ebd0544186991e8a5938f3589a48633e7ac64736f6c634300081c0033",
  "linkReferences": {},
  "deployedLinkReferences": {}
}